:020000040800F2
:10000000B009002001010008A92B0008792400088C
:10001000A52B0008E90D0008E13A000800000000E7
:100020000000000000000000000000006D3100082A
:1000300001140008000000001F2C00085D340008B7
:10004000393E00081D2C0008293500088D2D0008B8
:10005000F1190008892D00085D19000861190008D0
:1000600063190008651900086719000809110008DC
:100070000B1100080D1100080F11000811110008E4
:1000800013110008151100085F0A00081B01000881
:100090001B0100081B0100081B010008691900086A
:1000A0002B350008313500082F3500082D350008A4
:1000B00035350008F9350008093600087F240008A6
:1000C0007D24000883240008812400086931000889
:1000D0006B31000869380008BD3800081139000884
:1000E0005F1900088B2D0008DF3A0008DFF80CD0FC
:1000F00000F052FC00480047BD600008B009002035
:100100000648804706480047FEE7FEE7FEE7FEE7B1
:10011000FEE7FEE7FEE7FEE7FEE7FEE76D340008D8
:10012000ED00000840EA01039B0703D009E008C97D
:10013000121F08C0042AFAD203E011F8013B00F8AC
:10014000013B521EF9D27047F0B480EA0102D40F8D
:100150004200B2EB410F02D20246084611464A0065
:1001600042D0C30DDDB2C1F3C752AD1A202D35DA2E
:10017000C1F3160141F4000204B15242C5F1200658
:1001800002FA06F12A411044B3EBD05F23D0C4B188
:10019000012DA0EBC35009DCF0BC4FF0004202EA95
:1001A000C352DBB200F5000000F03BBB400000F1A1
:1001B000807000EBC350A0F1807040EAD17049001C
:1001C00009E0490841EAC071A0EBC35000F5000006
:1001D000400800EBC350F0BC00F01ABB61420122A2
:1001E00002EB4101001BF6E7F0BC704781F00041D3
:1001F000AAE780F00040A7E780EA010210B502F00C
:100200000043400022D04A001FD0010E01EB1261D2
:10021000C0F35600C2F3560240F4000042F400025C
:10022000A0FB022000047F39140400D0401C50EAD7
:10023000124001D44000491EC2B20C0604EBD0109B
:10024000401C4008802A02D003E0002010BD20F0AE
:100250000100002900DA0020184310BD30B480EA04
:10026000010202F0004530F0004221F0004013D0BE
:1002700090B1C30DD40DC2F31601C0F31600E41AF9
:1002800041F4000140F400027D34914201D3641C2A
:1002900000E04900002C02DA30BC002070474FF427
:1002A00000000023914201D3891A034340084FEA1A
:1002B0004101F7D151B1914202D14FF0004105E027
:1002C00002D24FF0010101E06FF0010103EBC450D5
:1002D000284430BC00F09CBA2DE9FE4F804681EAEC
:1002E0000300C00F0C46009021F0004123F00045B0
:1002F000B8EB0200A94105D24046214690461C4673
:100300000B46024623F00040104347D0270DC7F3A9
:100310000A00C3F30A510290401A019040286BDA98
:10032000C3F3130040F4801B0098924620B10023D1
:10033000D2EB030A63EB0B0B01985946C0F1400264
:10034000504600F034FA06460D4650465946019A8A
:1003500000F04CFA10EB08006141002487EA1152CA
:1003600084EAE7731A4340D0009A62B3019A012AE3
:100370004FEA075215DC001B61EB02014FF000420F
:1003800002EA0752CDE90042001C41F580113246D5
:100390002B4600F083FA03B0BDE8F08F40462146BB
:1003A000F9E7001B61EB0201001C41F58013001806
:1003B0005B412018A2F5001747EB030140EAD57016
:1003C000B6196D4111E06D084FEA360645EAC07571
:1003D0004FEA0752001B61EB0201001C41F580113E
:1003E00049084FEA30000019514132462B4603B00C
:1003F000BDE8F04F00F043BA00980122400000230E
:10040000D0EB020263EBE073009821464FEAE07400
:10041000B8EB000061EB0401E9E783F000435BE720
:1004200081F0004158E72DE9FE4F81EA030404F012
:10043000004421F0004100944FF0000B23F00043F2
:1004400050EA01045ED052EA03045BD0C3F30A54BD
:10045000C1F30A552C44A4F2F3340194A0FB0254D6
:10046000C1F3130141F48011C3F3130343F4801368
:1004700001FB024400FB034E840A970A44EA8154BC
:1004800047EA8357A4FB076802958D0A05FB078599
:100490004FEA932C04FB0C542705029D4FEA0658A3
:1004A00047EA1637B5EB08056EEB070C870E920E80
:1004B00047EA811742EA8312A7FB0201B6EB0B0160
:1004C00064EB00042B0D43EA0C335E1844EB1C5024
:1004D000DA465146E7FB0201C5F313044FEA0B333A
:1004E00043EA14534FEA0432019C43EA0603A4F1A1
:1004F0000C040294009CCDE900B400F0CFF903B0E5
:10050000BDE8F08F00200146F9E72DE9F04D81EAC2
:10051000030404F0004B21F0004514464FF0000A9C
:1005200023F0004150EA050220D054EA01021DD018
:10053000C5F30A570246C5F31303C1F31300C1F311
:100540000A5640F4801543F48013A7EB0608101BED
:10055000D64608F2FD3873EB050002D308F1010816
:1005600001E092185B41B8F1000F03DA0020014668
:10057000BDE8F08D00204FF48011064684460EE061
:10058000171B73EB050705D3121B63EB050306432B
:100590004CEA010C49084FEA300092185B4150EADE
:1005A0000107EDD152EA030012D082EA040083EA87
:1005B0000501084305D0101BAB4106D201220023E0
:1005C00006E000224FF0004302E06FF001025310FA
:1005D0001AEB06004CEB085110EB0A0041EB0B0143
:1005E000BDE8F04D00F04BB9C10F80EAE07008445F
:1005F000CA079623002100F014B996230022114661
:1006000000F00FB90EB5C10F80EAE0700844CA07C8
:10061000002140F233438DE80E000A460B4600F0FD
:100620003DF903B000BD0EB540F233410291002107
:10063000CDE900110A460B4600F030F903B000BDC9
:1006400020F00040C10DC0F3160040F400007F29E7
:1006500001DA00207047962903DCC1F19601C840F9
:100660007047963988407047C1F30A5210B5C1F3FC
:10067000130140F2FF3341F480119A4201DA002065
:1006800010BD40F233439A42A2F2334203DC52429D
:1006900000F09CF810BD904010BD00F0004230F01A
:1006A00000400AD0C10D01F56071C0F3160042EAA6
:1006B0000151C208400711437047002001467047AE
:1006C00030B5041E71F1000404DB4FF000444042D9
:1006D00064EB0101141E73F1000405DB1C464FF0AE
:1006E0000043524263EB04038B4208BF824230BD99
:1006F00030B5041E71F1000404DB4FF000444042A9
:1007000064EB0101141E73F1000405DB1C464FF07D
:100710000043524263EB0403994208BF904230BD4C
:1007200030B50B46014600202022012409E021FAC1
:1007300002F59D4205D303FA02F5491B04FA02F5BE
:100740002844151EA2F10102F1DC30BD2DE9F05F55
:100750000546002092469B46884606468146402430
:100760001BE0284641464746224600F02FF85346F4
:100770005A46C01A914110D311461846224600F03D
:1007800016F82D1A67EB01084F462246012000217A
:1007900000F00DF817EB00094E41201EA4F10104F2
:1007A000DFDC484631462A464346BDE8F09F202A12
:1007B00004DB203A00FA02F1002070479140C2F1B8
:1007C000200320FA03F3194390407047202A04DBEA
:1007D000203A21FA02F00021704721FA02F3D040BA
:1007E000C2F120029140084319467047202A06DBD7
:1007F000CB17203A41FA02F043EAE07306E041FAEF
:1008000002F3D040C2F120029140084319467047DC
:100810000029A8BF7047401C490008BF20F0010014
:10082000704710B4B0FA80FC00FA0CF050EA0104F2
:1008300004BF10BC704749B1CCF1200421FA04F484
:1008400011FA0CF118BF012121430843A3EB0C015D
:10085000CB1D4FEA00614FEA102042BF002010BCC0
:10086000704700EBC35010440029A4BF10BC704770
:10087000401C490008BF20F0010010BC704710B5B3
:10088000141E73F1000408DA401C41F100019218B3
:100890005B411A4301D120F0010010BD2DE9F04D5C
:1008A00092469B4611B1B1FA81F202E0B0FA80F2B1
:1008B00020329046FFF77BFF04460F4640EA0A00CD
:1008C00041EA0B0153465A46084313D0114653EAF6
:1008D000010019D0C8F140025046FFF777FF0546E6
:1008E0000E46504659464246FFF761FF084305D081
:1008F000012004E020463946BDE8F08D0020054384
:1009000046EAE0762C4337430A986305E40AA0EBF5
:1009100008000022FD0A44EA47540A3002D50020AC
:100920000146E9E7010510196941DDE908450019AB
:100930006941BDE8F04DA2E770B521F000430343E3
:100940000CD0C1F30A550024D5EB040564EB040375
:10095000D617AD1AB34102DB0020014670BD201846
:1009600041EB025170BDC1F30A52C1F3130140F2D1
:10097000FF3341F480119A4202DA002001467047A9
:1009800040F233439A42A2F2334202DC5242FFF772
:100990001DBFFFF70CBF0000064C074D06E0E068E6
:1009A00040F0010394E8070098471034AC42F6D3B6
:1009B000FFF7A0FB207D0008407D00082DE9F04DE9
:1009C00000231A461B1A8A4103DB00200146BDE8BA
:1009D000F08DC1F30A52C1F3130141F480154FF0B9
:1009E000000BD10702D100186D41521E00270446AA
:1009F00040F2FF11384601EB620A3E46804602464D
:100A000000204FF48011FFF7E1FEC2197141BB18BD
:100A100046EB0100B4EB030C75EB000C04D3E41AB5
:100A200065EB000517460E46241908F101006D41DB
:100A300080463428E3DDF91946EB0600091BA8417E
:100A400003D24FF0FF32134601E0002213461BEBA6
:100A5000070046EB0A51BDE8F04DFFF710BF7047A5
:100A600021B1826842F00102826003E0826822F0D4
:100A700001028260704721B1826842F48072826014
:100A800003E0826822F48072826070470146002091
:100A90008A6802F004020AB1012000E000207047D9
:100AA000014600208A6802F008020AB1012000E035
:100AB0000020704730B502460020002350680F4CDC
:100AC00020400D790C6844EA05242043506090686A
:100AD0000B4C2040D1E902542C434D7944EA4504A3
:100AE00020439060D06A20F470000C7C641EE4B255
:100AF000234340EA0350D06230BD0000FFFEF0FF08
:100B0000FDF7F1FFF0B504460D4600200021092D48
:100B100011DDE068A5F10A0606EB4607072606FA8E
:100B200007F18843A5F10A0606EB460603FA06F12B
:100B30000843E0600CE0206905EB4507072606FA4C
:100B400007F1884305EB450603FA06F108432061E7
:100B5000072A0FDA606B561E06EB86071F2606FA79
:100B600007F18843561E06EB860605FA06F1084390
:100B7000606322E00D2A0FDA206BD61F06EB860792
:100B80001F2606FA07F18843D61F06EB860605FAEC
:100B900006F10843206310E0E06AA2F10D0606EBBF
:100BA00086071F2606FA07F18843A2F10D0606EB19
:100BB000860605FA06F10843E062F0BD816841F05F
:100BC00008018160704721B1826842F4A00282600E
:100BD00003E0826822F4A00282607047816841F0DD
:100BE000040181607047000070B505460E4614464A
:100BF00016232246AA21772001F08AFD2A4841784F
:100C0000007801EB002000B2284948852648C178C9
:100C1000807801EB002000B2244988852248417980
:100C2000007901EB002000B22049C8851E48C17937
:100C3000807901EB00201D4908861B48417A007A23
:100C400001EB0020194948861748C17A807A01EBE8
:100C50000020164988861448417B007B01EB002068
:100C600000B21249C8861048C17B807B01EB00208E
:100C700000B20E4908870C48417C007C01EB002043
:100C800000B20A4948870848C17C807C01EB0020FB
:100C900000B2064988870448417D007D01EB0020B1
:100CA00000B20249C88770BDA0020020580500208C
:100CB0002DE9F05F074634233A46F421772001F00E
:100CC000A2FE41F2941004F05CFD3A46F621772032
:100CD00001F0EEFB834629480068A0F57A652748B5
:100CE000B0F9380005FB05F109134843C112234848
:100CF000B0F92C00684301EBE0282048B0F92A0045
:100D000008EB8000801C4FEAA00A1C48B0F93600AE
:100D100005FB05F10913484301141848B0F92E00EA
:100D2000684301EB6030801C4FEAA0081348008E36
:100D300008F5004148434FEAD039ABEB0A004CF2CA
:100D4000503100FB01F6B6F1004F03D27000B0FB4A
:100D5000F9F402E0B6FBF9F044002012404340F6FB
:100D6000DE31484301140648604301EB204000F6A1
:100D7000CF6004EB20142046BDE8F09F580500200A
:100D800043E3FFFF2DE9F04104462E232246F421E0
:100D9000772001F038FE41F2941004F0F2FC224674
:100DA000F621772001F084FB06460E48808E301A2B
:100DB0000C49498E4843C5130A48B0F93C00C002AB
:100DC0000849B1F93E10294490FBF1F7E8190549AB
:100DD00008600846006808304FEA20184046BDE821
:100DE000F08100005805002000BFFEE72DE9FF5FFD
:100DF00081460020AF498861002436E0B9F1070F31
:100E00000ED1AD48008841F6C811484340F6FF7145
:100E1000B0FBF1F0A74989690844A649886122E03E
:100E2000B9F1080F0ED1A448408841F6C8114843D3
:100E300040F6FF71B0FBF1F09E49896908449D4975
:100E4000886110E0B9F1090F0DD19B48808841F607
:100E5000C811484340F6FF71B0FBF1F0954989692C
:100E6000084494498861601CC4B21E2CC6DB9148BA
:100E700080691E21B0FBF1F08E49886108468069C7
:100E800041F28831081A40F2C331484389498969DF
:100E9000B0FBF1F0874908640846007D08B90120DD
:100EA00000E000208349897D012900D100E0002174
:100EB00008408049497D012900D100E00021084017
:100EC00000287CD07B49486CFFF7ADFB05460E46F9
:100ED0007849086CFFF7A7FB07462A463346FFF719
:100EE00014FB744AC2E912017449C88AFFF785FBF2
:100EF00007467349FFF780F906467249FFF779F90B
:100F00000546FFF7CAFB6B4AC2E902011146D1E967
:100F100012514FF020426C4B2846FFF784FA0746E7
:100F200088466449D1E902532A464146FFF7EDFA63
:100F3000604AC2E912016548B0F9060010F1640F79
:100F400020DD6249B1F90600FFF75CFB0746604A05
:100F5000604BFFF768FA824600225F4BFFF7BCF94F
:100F6000054605F039F85D4A5D4BCDE90001FFF714
:100F70005AFA4FF080425B4BCDE90201FFF750FA7D
:100F80004C4A03C200204B49C861002410E0494884
:100F90002030611C30F8111020F814102038C1697D
:100FA000203030F8140008444249C861601CC4B2C3
:100FB0000E2CECDB3F480146D0E9005300E03AE05C
:100FC000D1E912712A463846FFF72DFA394AC2E9AB
:100FD00012011046D0E91221104604F0FDFF05462B
:100FE0000022414BFFF71FFA07464FF000423F4BEC
:100FF000FFF716FA824652460B4600203C4905F0A0
:10100000DDFFCDE90201FFF72FFB81B2294881877F
:10101000C169808F08442749C8610846C0690F210B
:10102000B0FBF1F02349C8610846C06914283ED2DC
:101030000120C8613BE01F48007D012837D1002016
:101040001C4908750869FFF7EEFA824604F0C4FFF0
:1010500007464FF04042274BFFF7E5F905464FF0B2
:101060004042254BFFF7DCF902460B46CDE9020171
:1010700000201F4905F0A2FF0E4AC2E912011146E5
:10108000086CFFF7D0FA82460A48D0E912532A4684
:101090005046FFF73AFA0746FFF7E6FA0549486473
:1010A00006F06EFD0348016914A003F0E3F8BDE803
:1010B000FF9F000068040020100000202004002092
:1010C0007A5A8C39CA4E8B3F3B42ED3F5004002088
:1010D0000AD7A3703D0AC73F00004040B2D896200F
:1010E0002BC0E03F6811FE3F9C35F83F5A1100408D
:1010F000000024401726E53F073DF53F4261736538
:10110000203D2025640D0A007047704770477047E6
:1011100070477047704721B1026842F001020260D7
:1011200003E0026822F001020260704710B500225D
:10113000026847F6F0739A430C6A8B6823430C6984
:1011400023434C6923438C692343CC6923434C6A72
:1011500023438C6A23431A430260CB6843600B68C5
:1011600083604B68C36010BD2DE9F04782460024C0
:1011700003E00021A1480155641C092CF9D3002685
:10118000CC274FF044084FF0BE09504604F054F904
:10119000504601F089FE40F2B22004F0F2FA5046C7
:1011A00004F0C2F8002413E0504602F0FDF870B9D4
:1011B000002408E0504602F0F7F8012802D1012689
:1011C00041F6F424641C40F2DC508442F2D3641CE7
:1011D000B4F5AF7FE8D3012E70D10026504604F05D
:1011E0002BF9504602F06AF8002417E0504601F04F
:1011F0005BFE47FA04F000F0010028B1022004F081
:10120000C0FA504602F05AF8452004F0BAFA5046A7
:1012100002F054F8032004F0B4FA641C082CE5D35F
:10122000002417E0504601F03FFE48FA04F000F0B9
:10123000010028B1022004F0A4FA504602F03EF862
:10124000452004F09EFA504602F038F8032004F0DE
:1012500098FA641C082CE5D340F2C93004F086FAF1
:10126000504601F021FE40F2B22004F08AFA5046C6
:1012700004F05AF8002413E0504602F095F870B9D3
:10128000002408E0504602F08FF8012802D1012620
:1012900041F6F424641C40F2DC508442F2D3641C16
:1012A000B4F5AF7FE8D3012E6CD10026504604F090
:1012B000C3F8504602F002F8002418E062E05046FD
:1012C00001F0F2FD47FA04F000F0010028B102201D
:1012D00004F057FA504601F0F1FF452004F051FAAE
:1012E000504601F0EBFF032004F04BFA641C082C7D
:1012F000E5D3002417E0504601F0D6FD49FA04F08A
:1013000000F0010028B1022004F03BFA504601F041
:10131000D5FF452004F035FA504601F0CFFF0320F9
:1013200004F02FFA641C082CE5D3002528E00024E3
:1013300023E0504604F080F8504601F0B5FD02204D
:1013400004F01FFA504603F0EFFF2C48405D4110B7
:101350002A484155504602F027F820B92748405DF9
:101360002649485505E02548405D40F08001234866
:101370004155452004F005FA641C082CD9D36D1C96
:10138000092DD4D31D480838C07B102801D1012075
:1013900000E0002019490839897B0C2901D101217D
:1013A00000E00021084015490839497BFF2901D197
:1013B000012100E00021084010490839097B7F29FC
:1013C00001D1012100E0002108400C490839C97A07
:1013D000462901D1012100E00021084007490839D0
:1013E000897A4B2901D1012100E00021084010B188
:1013F0000120BDE8F0870020FBE700005804002032
:10140000704700002DE9FE4306460A274FF000080A
:10141000FF208DF8000001208DF8010086208DF856
:10142000020000208DF803008DF804008DF80500FF
:101430008DF806008DF8070079208DF8080000244B
:1014400006E01DF80410304602F0ACF9601CC4B28E
:10145000092CF6DB02F034F8054606E0304601F0D0
:1014600083FF10B94FF00108002702F029F8401B54
:10147000B842F3D3B8F1010F73D14FF00008002444
:1014800009E04348417D304601F081FC4049163176
:101490000855601CC4B2092CF3DB00203C490875D8
:1014A000012408E03A48017D1630005D08443849BF
:1014B0000875601CC4B2082CF4DB3548007DC043BD
:1014C000401C334908750846017D807F81425CD10C
:1014D0002F480079002845D1002410E02C48801DB9
:1014E000611C30F8111020F81410801F0169801D54
:1014F00030F81400084426490861601CC4B2022C6C
:10150000ECDB2348417E007E01EB00212048807EF9
:1015100001EB00211E48C07E01441D48007F01EB05
:1015200000211B48407F084481B21948418101696C
:101530004089084416490861084600690321B0FB48
:10154000F1F01349086108460069B1F90210084436
:101550000F490861084600690A21B0FBF1F00C4907
:10156000086112E00A48007901280ED100200849DC
:10157000087108460088098A401A054949880844C4
:1015800000B20349488006F0FBFABDE8FE83000084
:101590001800002030B585B00546FF208DF800000A
:1015A00001208DF8010086208DF8020000208DF8C2
:1015B00003008DF804008DF805008DF806008DF805
:1015C000070079208DF80800012D7BD1092168469C
:1015D00006F06CFA1E2004F0C9F8DD4890F86700A8
:1015E00001286ED10020DA4981F8670081F868008F
:1015F00001240AE0D64890F86810C01C005D084439
:10160000D34981F86800601CC4B2082CF2DBD048D2
:1016100090F86800C043401CCD4981F86800CD486F
:10162000007900284FD1084690F86810C07A8142AE
:10163000D7D10020C7490861002410E0C548801DAB
:10164000611C30F8111020F81410801F0169801DF2
:1016500030F814000844BF490861601CC4B2022C71
:10166000ECDBBB488179407901EB0021B848C079B7
:1016700001EB0021B648007A0144B548407A01EBFD
:101680000021B348807A084481B2B248418101699F
:1016900040890844AF490861084600690321B0FB4E
:1016A000F1F0AC49086108460069B1F9021008443C
:1016B000A8490861084600690A21B0FBF1F0A54974
:1016C000086142E162E0A34800790128F9D1A0480D
:1016D00090F86810C07A814247D100209D49086186
:1016E000002410E09B48801D611C30F8111020F888
:1016F0001410801F0169801D30F8140008449549BA
:101700000861601CC4B2022CECDB914881794079FD
:1017100001EB00218E48C07901EB00218C48007A52
:1017200001448B48407A01EB00218948807A0844C3
:1017300081B288484181016940890844854908612E
:10174000084600690321B0FBF1F0824908610846B0
:101750000069B1F9021008447E4908610846006931
:101760000A21B0FBF1F07B4908617A480088794989
:10177000098A401A77494988084400B27549488067
:1017800006F0FEF9002073490871DEE0022D98D1C1
:101790000921684606F0A8F91E2003F0E7FF6E480D
:1017A00090F8670001288CD100206B4981F8670010
:1017B00081F8680001240AE0674890F86810C01CAE
:1017C000005D0844644981F86800601CC4B2082CBC
:1017D000F2DB614890F86800C043401C5E4981F824
:1017E0006800084690F86810C07A8142CDD1594807
:1017F0000079002847D157490861002410E0554876
:10180000801D611C30F8111020F81410801F016930
:10181000801D30F8140008444E490861601CC4B2B1
:10182000022CECDB4C488179407901EB00214A48DD
:10183000C07901EB00214848007A01444648407ACB
:1018400001EB00214448807A084481B2414841813B
:101850000169408908443F4908610846006903213D
:10186000B0FBF1F03B49086108460069B1F902108C
:10187000084438490861084600690A21B0FBF1F0C4
:101880003449086161E03348007901285DD132486C
:1018900090F86810C07A814247D100202D49086134
:1018A000002410E02B48801D611C30F8111020F836
:1018B0001410801F0169801D30F814000844254968
:1018C0000861601CC4B2022CECDB234881794079AA
:1018D00001EB00212048C07901EB00211E48007A6D
:1018E00001441D48407A01EB00211B48807A0844DE
:1018F00081B218484181016940890844154908614D
:10190000084600690321B0FBF1F01249086108465E
:101910000069B1F9021008440E49086108460069DF
:101920000A21B0FBF1F00B4908610A480088094917
:10193000098A401A07494988084400B20549488085
:1019400006F01EF900200349087105B030BD000003
:101950008001002018000020F0010020704770472F
:1019600070477047704770477047000030B50546B4
:1019700004244FF4302000F08DF80446042C19D1D3
:101980000D48006940F002000B49086108464561B6
:10199000006940F0400008614FF4302000F07AF810
:1019A0000446052C06D00448006941F6FD71084044
:1019B00001490861204630BD0020024004200B4947
:1019C000C96801F0010109B101200EE00749C968A9
:1019D00001F0040109B1022007E00449C96801F0DF
:1019E000100109B1032000E00420704700200240EC
:1019F000704700000348006940F080000149086119
:101A0000704700000020024078B506460D460424C9
:101A100000200090E00200F03DF80446042C28D19C
:101A20001548006940F00100134908613580E00263
:101A300000F030F80446042C12D1B01C0090280CA1
:101A400000990880E00200F025F80446052C10D02B
:101A50000948006941F6FE7108400749086108E03D
:101A6000052C06D00448006941F6FE710840024981
:101A70000861204678BD000000200240024803496A
:101A800048600348486070472301674500200240D2
:101A9000AB89EFCD00B502460423FFF78FFF034665
:101AA00003E0FFF78BFF0346521E012B01D1002AF2
:101AB000F7D102B90523184600BD000010B505F0A6
:101AC00069FF28480068B0F1693F02D003F008FEC2
:101AD00046E02448B0F8540000B22349C8842148A5
:101AE000B0F8580000B2214988821E48C06D2049D4
:101AF00048641C48B0F8600000B21E49488019488C
:101B0000406E1D4948641748806E1C49486415485A
:101B1000C06E1B4908611348006F1A4908611148DB
:101B2000406F194948610F48B0F8780000B2174972
:101B30004880002412E0601C0A4951F8201009482E
:101B4000C83040F8241004F10B00064951F8201069
:101B50000448F03040F82410601CC4B20A2CEADBC0
:101B600010BD0000040300202004002050040020C9
:101B7000680400207800002008050020B804002038
:101B800038000020580000205805002018000020D0
:101B90002DE9F04102460025002600200023002404
:101BA000002791F803C00CF00F0591F803C00CF06A
:101BB000100CBCF1000F03D091F802C04CEA0505EF
:101BC00091F800C0BCF1000F31D0146800202BE068
:101BD0004FF0010C0CFA00F3B1F800C00CEA030658
:101BE0009E4220D183004FF00F0C0CFA03F7BC4348
:101BF00005FA03FC4CEA040491F803C0BCF1280F79
:101C000006D14FF0010C0CFA00FCC2F814C00AE037
:101C100091F803C0BCF1480F05D14FF0010C0CFA4C
:101C200000FCC2F810C0401C0828D1D31460B1F8E1
:101C300000C0BCF1FF0F34DD546800202EE000F13D
:101C4000080C4FF0010808FA0CF3B1F800C00CEAD8
:101C500003069E4221D183004FF00F0C0CFA03F7CC
:101C6000BC4305FA03FC4CEA040491F803C0BCF140
:101C7000280F05D100F1080C08FA0CF8C2F81480FE
:101C800091F803C0BCF1480F07D100F1080C4FF0E8
:101C9000010808FA0CF8C2F81080401C0828CED3BE
:101CA0005460BDE8F0810246002093680B400BB100
:101CB000012000E0002070470AB1016100E04161AD
:101CC0007047000010B50121042000F0E3FF01215E
:101CD000082000F0DFFF4FF4007010490880032057
:101CE00088701020C8700E48FFF752FF4FF4007044
:101CF0000A490880032088701820C8700948FFF737
:101D000047FF4FF480600549088003208870042055
:101D1000C8700448FFF73CFF10BD00000000002021
:101D2000000C0140000801402DE9F04F89B08146C8
:101D30000020FA498861002436E0B9F1070F0ED17E
:101D4000F748008841F6C811484340F6FF71B0FBE0
:101D5000F1F0F24989690844F049886122E0B9F15B
:101D6000080F0ED1EE48408841F6C811484340F6AE
:101D7000FF71B0FBF1F0E94989690844E7498861DE
:101D800010E0B9F1090F0DD1E548808841F6C8117E
:101D9000484340F6FF71B0FBF1F0E049896908441F
:101DA000DE498861601CC4B21E2CC6DBDB4880693A
:101DB0001E21B0FBF1F0D94988610846806941F2E3
:101DC0008831081A40F2A2314843D4498969B0FBEE
:101DD000F1F0D24908640846007D08B9012000E00E
:101DE0000020CE49897D012900D100E00021084072
:101DF000CA49497D012900D100E00021084000289E
:101E00007ED0C649486CFEF70EFC05460E46C34917
:101E1000086CFEF708FC07462A463346FEF775FBBA
:101E2000BE4AC2E91201BF49C88AFEF7E6FB07466F
:101E3000BD49FEF7E1F90646BC49FEF7DAF9054669
:101E4000FEF72BFCB54AC2E9020110464FF04042B2
:101E5000B74BD0E912512846FEF7E5FA0746884607
:101E6000AE49D1E902532A464146FEF74EFBAB4A42
:101E7000C2E91201AF48B0F90600FA287DDA002065
:101E80001146C861002410E0A4482030611C30F8DD
:101E9000111020F814102038C169203030F81400D7
:101EA00008449E49C861601CC4B20E2CECDBA149F9
:101EB000B1F90600FEF798FB80469F49FEF79CF9B2
:101EC00007464FF08441FEF73FF906469B49FEF76F
:101ED00093F90546FEF7E1FBCDE904019549B1F917
:101EE0000600FEF781FB94490190FEF785F98346D1
:101EF0004FF08441FEF728F98246FEF7CEFB00E062
:101F0000CDE0074600224FF0804305F057F8054624
:101F10004FF0C0428A4BFEF786FACDE90201DDE9B7
:101F20000423FEF77AFA4FF04042864BCDE90601D2
:101F3000FEF7D2F9794A03C27848D0E900532A461D
:101F4000D0E912713846FEF76EFA744AC2E91201FE
:101F50001046D0E91221104604F03EF805464FF035
:101F60000052794BFEF75FFA07464FF06042774B1D
:101F7000FEF756FA02460B4600E018E0CDE90601EE
:101F80000020734905F01AF88246FEF76DFB81B216
:101F900062488187C169808F08446049C8610846EA
:101FA000C0690F21B0FBF1F05C49C8616FE0614886
:101FB000B0F90600FA286ADB00205849C8610024FD
:101FC00010E056482030611C30F8111020F8141031
:101FD0002038C169203030F8140008444F49C861E6
:101FE000601CC4B20E2CECDB5249B1F90600FEF7BE
:101FF000FBFA82465049FEF7FFF880464FF08441D5
:10200000FEF7A2F807465349FEF7F6F8064652498E
:10201000FEF7EFF80546FEF740FB404A03C23F4893
:10202000D0E900532A46D0E912713846FEF7FBF991
:102030003A4AC2E912011046D0E91221104603F0D3
:10204000CBFF05464FF000523F4BFEF7ECF9074639
:102050004FF060423D4BFEF7E3F902460B46CDE9F7
:10206000060100203A4904F0A9FF8246FEF7FCFA77
:1020700081B22A488187C169808F08442749C86195
:102080000846C0690F21B0FBF1F02449C86123481C
:10209000C06914283FD201202049C8613BE01F4895
:1020A000007D012837D100201C4908750869FEF71A
:1020B000BAFA824603F090FF07464FF0C042274B22
:1020C000FEF7B1F905464FF00052254BFEF7A8F98F
:1020D00002460B46CDE9060100201D4904F06EFFC3
:1020E0000E4AC2E912011146086CFEF79CFA074637
:1020F0000A48D0E912532A463846FEF706FA8246C5
:10210000FEF7B2FA0549486405F03AFD0348016953
:1021100014A002F0AFF809B0BDE8F08F0805002068
:1021200010000020200400202DD232395C1B873F94
:10213000C53AEE3F50040020EC51383E9D27BF3C8D
:102140005093213F338CFE3F0CBD03403142004091
:1021500000002440F487B23A661B823F6FF0D93FFB
:10216000C05BEA3F42617365203D2025640D0A0093
:102170002DE9FC5F81460020AC49886100242DE0F8
:10218000B9F1070F0BD1AA48008841F6C81148439E
:1021900040F6FF71B0FBF1F0A44988611CE0B9F191
:1021A000080F0BD1A248408841F6C811484340F6B9
:1021B000FF71B0FBF1F09D4988610DE0B9F1090FA5
:1021C0000AD19B48808841F6C811484340F6FF7108
:1021D000B0FBF1F095498861601CC4B21E2CCFDBC6
:1021E000924880691E21B0FBF1F090498861084651
:1021F000806941F28831081A40F2CB3148438B495B
:102200008969B0FBF1F0894908640846007D08B986
:10221000012000E000208549897D012900D100E0EE
:10222000002108408149497D012900D100E00021B9
:10223000084000287ED07D49486CFEF7F4F9054639
:102240000E467A49086CFEF7EEF907462A463346F1
:10225000FEF75BF9754AC2E912017649C88AFEF7B2
:10226000CCF907467449FDF7C7FF06467349FDF7E9
:10227000C0FF0546FEF711FA6C4AC2E90201114699
:10228000D1E912514FF000526D4B2846FEF7CBF8C2
:1022900007466648D0E902532A463846FEF735F924
:1022A000624AC2E912016748B0F9060010F1640FF2
:1022B00023DD6449B1F90600FEF796F96249009002
:1022C000FDF79AFF83464FF08441FDF73DFF8246BC
:1022D0005E49FDF791FF0190FEF7DFF907463A46A8
:1022E0000B464FF000405A4904F068FE05460022B4
:1022F000584BFEF798F84D4A03C200204B49C8617D
:10230000002410E049482030611C30F8111020F8FA
:1023100014102038C169203030F8140008444349B3
:10232000C861601CC4B20E2CECDB40490846D1E900
:10233000005300E03BE02A46D0E912713846FEF730
:1023400072F83A4AC2E912011046D0E91221104649
:1023500003F042FE05464FF060423F4BFEF763F844
:1023600007464FF060423D4BFEF75AF88246524610
:102370000B4600203A4904F021FECDE90001FEF7AA
:1023800073F981B229488187C169808F0844274940
:10239000C8610846C0690F21B0FBF1F02349C8614C
:1023A0000846C06914283ED20120C8613BE01F489E
:1023B000007D012837D100201C4908750869FEF707
:1023C00032F9CDE9000103F007FE05464FF0204247
:1023D000244BFEF728F807464FF0C042224BFEF789
:1023E0001FF8824652460B4600201D4904F0E6FDC8
:1023F0000E4AC2E912011146086CFEF714F90746AD
:102400000A48D0E912532A463846FEF77EF882463B
:10241000FEF72AF90549486405F0B2FB0348016953
:1024200012A001F027FFBDE8FC9F0000B8040020C7
:102430001000002020040020D6E5143A7446B43F72
:1024400090A0F03F50040020EC51383E1443CDBB27
:102450000ABF05406A67F93F878600407513084048
:10246000000024407EFBDE3F764FF73F42617365FC
:10247000203D2025640D0A0000BFFEE7704770472D
:102480007047704770B506460C4600250DE00520E4
:1024900003F077F9304600F0BBFE052003F071F938
:1024A000304600F0ABFC681CC5B2A542EFDB70BD46
:1024B0002DE9F05F0546894692464FF00008002658
:1024C0000027B3466806050E504600F06FFA002458
:1024D00012E005FA04F000F08000802803D1504695
:1024E00000F0ECFE02E0504600F0DEFC0121504618
:1024F000FFF7C8FF601CC4B2082CEADB504602F0AC
:1025000013FF052003F03DF9504600F081FE052041
:1025100003F037F900240BE0504600F045FF18B9EE
:10252000D2244FF0010801E04FF00008601CC4B253
:10253000D22CF1DB504600F061FCB8F1010F74D1F0
:102540004FF00008504600F0AFFC504602F074FF18
:10255000002412E009FA04F000F08000802803D182
:10256000504600F0ABFE02E0504600F09DFC012119
:102570005046FFF787FF601CC4B2082CEADB5046C8
:1025800002F0D2FE052003F0FCF8504600F040FEB9
:10259000052003F0F6F800240BE0504600F004FF9D
:1025A00018B9D2244FF0010801E04FF00008601C78
:1025B000C4B2D22CF1DB504600F020FCB8F1010F80
:1025C000BDD14FF00008681CC5B2504600F0EEF9CE
:1025D000002412E005FA04F000F08000802803D106
:1025E000504600F06BFE02E0504600F05DFC012119
:1025F0005046FFF747FF601CC4B2082CEADB504688
:1026000002F092FE052003F0BCF8504600F000FEF8
:10261000052003F0B6F800240CE0504600F0C4FE9C
:1026200020B9D2244FF0010802E06BE04FF000081F
:10263000601CC4B2D22CF0DB504600F0DFFB05205A
:1026400003F09FF8B8F1010F5CD14FF000080024AF
:1026500018E0504600F0DCFD052003F092F8780603
:10266000070E504600F0A0FE012802D1781CC7B228
:1026700000E0FFB2504600F0C1FB052003F081F8F6
:10268000601CC4B2082CE4DB504602F0D5FE504674
:1026900000F00AFC01215046FFF7F4FE504602F01C
:1026A00043FE002418E0504600F0B2FD052003F080
:1026B00068F87006060E504600F076FE012802D13A
:1026C000701CC6B200E0F6B2504600F097FB052041
:1026D00003F057F8601CC4B2082CE4DB504602F04B
:1026E000ABFE504600F0EAFD01215046FFF7CAFE5E
:1026F000504600F0D9FB01215046FFF7C3FE50467B
:1027000000F072F946EA072B5846BDE8F09F00003A
:102710002DE9F0470746894692461E464FF00008CD
:102720007806070E504600F041F9002412E007FA3F
:1027300004F000F08000802803D1504600F0BEFD78
:1027400002E0504600F0B0FB01215046FFF79AFE30
:10275000601CC4B2082CEADB504602F0E5FD0520FF
:1027600003F00FF8504600F053FD052003F009F880
:1027700000240BE0504600F017FE18B9D2244FF0A9
:10278000010801E04FF00008601CC4B2D22CF1DB5C
:10279000504600F033FBB8F1010F74D14FF0000840
:1027A000504600F081FB504602F046FE002412E045
:1027B00009FA04F000F08000802803D1504600F0B0
:1027C0007DFD02E0504600F06FFB01215046FFF70F
:1027D00059FE601CC4B2082CEADB504602F0A4FD8E
:1027E000052002F0CEFF504600F012FD052002F059
:1027F000C8FF00240BE0504600F0D6FD18B9D224E3
:102800004FF0010801E04FF00008601CC4B2D22C68
:10281000F1DB504600F0F2FAB8F1010FBDD14FF0F4
:102820000008781CC7B2504600F0C0F8002412E03F
:1028300007FA04F000F08000802803D1504600F031
:102840003DFD02E0504600F02FFB01215046FFF70E
:1028500019FE601CC4B2082CEADB504602F064FD8D
:10286000052002F08EFF504600F0D2FC052002F059
:1028700088FF00240CE0504600F096FD20B9D224D9
:102880004FF0010802E08DE04FF00008601CC4B278
:10289000D22CF0DB504600F0B1FA052002F071FFB7
:1028A000B8F1010F7ED14FF00008002535E000247B
:1028B00022E0504600F0ACFC052002F062FF3A48EE
:1028C000405D4006000E38494855504600F06CFD0A
:1028D000012805D13448405D401C3349485503E088
:1028E0003148405D30494855504600F087FA052090
:1028F00002F047FF601CC4B2082CDADB504602F03D
:102900009BFD504600F0D0FA01215046FFF7BAFD7A
:10291000504602F009FD681CC5B2701EA842C6DC14
:10292000002429E0504600F073FC052002F029FF46
:10293000701E1D49085C4006010E701E1A4A115493
:10294000504600F031FD012808D1701E1649085C80
:10295000401CC1B2701E144A115405E0701E124989
:10296000085C711E104A5054504600F047FA05208A
:1029700002F007FF601CC4B2082CD3DB504602F003
:102980005BFD504600F09AFC01215046FFF77AFDAE
:10299000504600F089FA01215046FFF773FD50467A
:1029A00000F022F8BDE8F087A002002010B5044630
:1029B000204602F041FD204600F080FC052002F098
:1029C000E0FE204600F024FC052002F0DAFE20465E
:1029D00000F06AFA052002F0D4FE204600F00EFA5C
:1029E000052002F0CEFE10BD10B50446204600F0D2
:1029F0000FFC052002F0C5FE204600F05FFC05201C
:102A000002F0BFFE10BD2DE9F04705460F46904687
:102A1000994600266806050E4046FFF7C7FF0024CA
:102A200012E005FA04F000F08000802803D140464F
:102A300000F044FC02E0404600F036FA0121404636
:102A4000FFF720FD601CC4B2082CEADB404602F010
:102A50006BFC052002F095FE404600F0D9FB0520F6
:102A600002F08FFE002409E0404600F09DFC10B902
:102A7000D224012600E00026601CC4B2D22CF3DB75
:102A8000404600F0BBF9012E6FD10026404600F011
:102A90000BFA404602F0D0FC002412E007FA04F0E2
:102AA00000F08000802803D1404600F007FC02E0DF
:102AB000404600F0F9F901214046FFF7E3FC601CB5
:102AC000C4B2082CEADB404602F02EFC052002F0DE
:102AD00058FE404600F09CFB052002F052FE002408
:102AE00009E0404600F060FC10B9D224012600E065
:102AF0000026601CC4B2D22CF3DB404600F07EF905
:102B0000012E4DD10026404600F0CEF9404602F09D
:102B100093FC002412E009FA04F000F08000802801
:102B200003D1404600F0CAFB02E0404600F0BCF989
:102B300001214046FFF7A6FC601CC4B2082CEADB6A
:102B4000404602F0F1FB052002F01BFE404600F07B
:102B50005FFB052002F015FE00240AE0404600F06D
:102B600023FC18B9D224012601E019E00026601CDC
:102B7000C4B2D22CF2DB404600F040F9012E0FD156
:102B80000026404602F058FC404600F041FB05207C
:102B900002F0F7FD404600F091FB0120BDE8F08710
:102BA0000020FBE700BFFEE77047000070B5002182
:102BB00000230F22C47804B3154C246804F4E064A5
:102BC000C4F5E064210AC1F10403CA40447804FA60
:102BD00003F184781440214309010E4C0678A15575
:102BE000047804F01F050124AC4005786D11AD0098
:102BF00005F1E025C5F8004109E0047804F01F055F
:102C00000124AC40044D0678761145F8264070BD8D
:102C10000CED00E000E400E080E100E07047704768
:102C200070B506460C46002510E0012002F0A9FD13
:102C3000304600F0EDFA012002F0A3FD304600F02E
:102C4000DDF8012002F09DFD681CC5B2A542ECDB59
:102C500070BD000029B1064A52690243044B5A6113
:102C600004E0034A52698243014B5A6170470000F5
:102C70000010024029B1064AD2690243044BDA61CE
:102C800004E0034AD2698243014BDA6170470000D5
:102C90000010024029B1064A92690243044B9A612E
:102CA00004E0034A92698243014B9A617047000035
:102CB0000010024030B500210022002400232D4DD9
:102CC0006D6805F00C0121B1042905D0082923D134
:102CD00005E0294D056022E0274D05601FE0254DE8
:102CE0006D6805F47012234D6D6805F4803402257B
:102CF00005EB92421CB9214D554305600BE01D4D7B
:102D00006D6805F400351DB11C4D5543056002E0AA
:102D1000194D5543056002E0174D056000BF00BF27
:102D2000144D6D6805F0F0010909154D6B5C0568DF
:102D3000DD4045600F4D6D6805F4E061090A104DF6
:102D40006B5C4568DD4085600A4D6D6805F4605137
:102D5000C90A0B4D6B5C4568DD40C560054D6D686B
:102D600005F44041890B074D6B5CC568B5FBF3F575
:102D7000056130BD0010024000127A0000093D00DC
:102D800098000020A80000207047704770472DE988
:102D9000F04780460E4600274FF00A0A00F090FBED
:102DA000814605E0404600F0DFFA08B90026B24649
:102DB00000F086FBA0EB09005045F3D3012E02D1B1
:102DC0000020BDE8F087342002F0DBFC00240CE09A
:102DD000682002F0D6FC404600F0C6FA054605FA27
:102DE00004F03843C7B2601CC4B2082CF0DB682082
:102DF00002F0C7FC01263846E3E7000010B50446A0
:102E00002CB9002280212648FEF756FF47E0012C0E
:102E100005D1002204212348FEF74EFF3FE0022C9B
:102E200005D1002261021E48FEF746FF37E0032C61
:102E300006D100224FF400411948FEF73DFF2EE075
:102E4000042C05D1002201211648FEF735FF26E0AB
:102E5000052C05D1002202211248FEF72DFF1EE0AD
:102E6000062C05D1002220210E48FEF725FF16E092
:102E7000072C05D1002210210A48FEF71DFF0EE0A5
:102E8000082C05D1002201210648FEF715FF06E0B7
:102E9000092C04D1002202210148FEF70DFF10BDCC
:102EA000000C01400008014010B504462CB9002276
:102EB00040212848FEF700FF4AE0012C05D10022FE
:102EC00008212548FEF7F8FE42E0022C05D1002239
:102ED000A1022048FEF7F0FE3AE0032C06D10022C2
:102EE0004FF480411B48FEF7E7FE31E0042C05D18A
:102EF0000022A1011748FEF7DFFE29E0052C06D1CC
:102F000000224FF480511448FEF7D6FE20E0062C34
:102F100005D1002240211048FEF7CEFE18E0072C14
:102F200006D100224FF400610B48FEF7C5FE0FE00A
:102F3000082C05D1002261010648FEF7BDFE07E01E
:102F4000092C05D100224FF480510248FEF7B4FE4F
:102F500010BD0000000C01400008014010B50446FF
:102F6000204602F069FA2046FFF79EFF0121204625
:102F7000FFF756FE204602F0D7F910BD30B50346E4
:102F80000D4605EB03234FF0004101EBC251002435
:102F90000AE003FA04F000F00040B0F1004F00D165
:102FA0004B404908601CC4B2182CF2DBD8B230BDCB
:102FB0002DE9F04106460F464FF00008002500209D
:102FC0004D4981F82900384600F09AF8002411E0B4
:102FD00006FA04F000F08000802803D1384600F0A3
:102FE0006DF902E03846FFF75FFF01213846FFF731
:102FF00017FE641C082CEBD33846FFF755FF012160
:103000003846FFF70DFE012002F0BBFB384600F00A
:1030100055F9384602F088F9002407E0384600F0F8
:10302000C3F910B94FF00108344C641C3348844292
:10303000F4D3B8F1010F5BD1002412E0384600F060
:10304000E7F8680005B2384600F0AEF900B901E0D3
:1030500045F001053846FFF7D1FE012002F091FB53
:10306000641C082CEAD33846FFF778FF00240FE0F1
:10307000384600F0CDF8680005B2384600F094F903
:1030800000B901E045F001053846FFF7B7FE641CC2
:10309000082CEDD33846FFF761FF002420E03846C6
:1030A00000F0B6F8144890F829004010124981F851
:1030B0002900384600F078F930B90F4890F8290017
:1030C0000D4981F8290007E00B4890F8290040F0ED
:1030D0008000094981F829003846FFF78FFE641CFB
:1030E000082CDCD3384600F032F82846BDE8F081E1
:1030F0004FF0FF30FAE7000020040020200B2000F2
:1031000010B50446204602F097F9204600F080F8FA
:10311000012002F036FB2046FFF7C6FE012002F038
:1031200030FB2046FFF76AFE012002F02AFB204612
:1031300000F06EF8012002F024FB204600F0BEF8FB
:10314000012002F01EFB2046FFF758FE10BD10B50F
:103150000446204602F070F9204600F0AFF8012145
:103160002046FFF75DFD10BD70477047704710B5F2
:1031700000F002F810BD000008B5002000902248C1
:10318000006840F01000204908600846006820F000
:10319000030008600846006840F0020008601B4811
:1031A00040681A49486008464068486008464068D8
:1031B00040F4806048600846406820F47C10486015
:1031C0000846406840F4601048600846006840F0D7
:1031D0008070086000BF0D48006800F00070002893
:1031E000F9D00A48406820F00300084948600846C2
:1031F000406840F00200486000BF0448406800F0AA
:103200000C000828F9D108BD00200240001002403F
:1032100010B504462CB9012280212648FEF74CFD4A
:1032200046E0012C05D1012204212348FEF744FD8C
:103230003EE0022C05D1012291021E48FEF73CFD22
:1032400036E0032C05D10122D1031A48FEF734FDE4
:103250002EE0042C05D1012211461748FEF72CFD63
:1032600026E0052C05D1012202211348FEF724FD9A
:103270001EE0062C05D1012220210F48FEF71CFD7F
:1032800016E0072C05D1012210210B48FEF714FD92
:103290000EE0082C05D1012211460748FEF70CFD6F
:1032A00006E0092C04D1012202210248FEF704FDA8
:1032B00010BD0000000C01400008014010B504469C
:1032C0002CB9012240212648FEF7F6FC46E0012CED
:1032D00005D1012208212348FEF7EEFC3EE0022C36
:1032E00005D10122D1021E48FEF7E6FC36E0032C90
:1032F00005D1012291031A48FEF7DEFC2EE0042CD2
:1033000005D1012211021648FEF7D6FC26E0052C55
:1033100005D1012211031348FEF7CEFC1EE0062C56
:1033200005D1012240210F48FEF7C6FC16E0072C0C
:1033300005D10122D1020B48FEF7BEFC0EE0082C9D
:1033400005D1012211020648FEF7B6FC06E0092C61
:1033500004D1012211030248FEF7AEFC10BD0000AB
:10336000000C01400008014070B504462CB9202132
:103370000B48FEF798FC05460FE0032C06D14FF4EE
:1033800000510748FEF78FFC054606E0062C04D1E5
:1033900080210448FEF787FC0546284670BD0000E2
:1033A000000C01400008014070B504462CB94021D2
:1033B0002848FEF778FC05464AE0012C05D1082193
:1033C0002548FEF770FC054642E0022C05D1A1021B
:1033D0002048FEF768FC05463AE0032C06D14FF47E
:1033E00080411C48FEF75FFC054631E0042C05D106
:1033F000A1011848FEF757FC054629E0052C06D127
:103400004FF480511448FEF74EFC054620E0062C90
:1034100005D140211048FEF746FC054618E0072C70
:1034200006D14FF400610C48FEF73DFC05460FE065
:10343000082C05D161010748FEF735FC054607E079
:10344000092C05D14FF480510248FEF72CFC0546AB
:10345000284670BD000C0140000801400248006889
:10346000401C0149086070470C00002010B511484D
:10347000006840F001000F490860084640680E49A6
:1034800008400C494860084600680C490840094952
:1034900008600846006820F48020086008464068FC
:1034A00020F4FE0048604FF41F008860FFF75FFEC5
:1034B00010BD0000001002400000FFF8FFFFF6FE04
:1034C00001480068704700000C00002030B54FF440
:1034D0007A41B1F1807F01D301201DE021F07F40CE
:1034E000401E4FF0E022506150170F22002807DAEB
:1034F00013071D0E0A4B00F00F04241F1D5503E097
:1035000013071C0E074B1C5400BF00204FF0E02295
:10351000906107201061002008B100BFFEE730BDB8
:1035200018ED00E000E400E0704770477047704716
:103530007047000010B50121880700F0C4F800288A
:1035400053D02A480088002804DD2848C06E401C5B
:103550002649C8662548C06E0A2808D90120234993
:1035600081F86700084600788870002008802048AD
:103570000088002804DD1E48C06E401C1C49C86637
:103580001B48C06E0A2808D90120194981F8670034
:1035900008460078887000200880164800880028B7
:1035A00004DD1448C06E401C1249C8661148C06E44
:1035B0000A2808D901200F4981F8670008460078D9
:1035C0008870002008800948008850B908480088A1
:1035D00038B90848008820B900214FF0804000F039
:1035E00066F80121880700F05FF810BD1001002087
:1035F00080010020F001002010B50121014800F0F9
:1036000053F810BD0004004010B50121014800F03E
:103610004BF810BD0008004010B501210846FFF727
:1036200029FB01210220FFF725FB40F2CF201B4997
:103630000880642088800020C88048804FF0804047
:1036400000F05EF801221146900700F04DF80121CC
:10365000880700F02CF83F20104908804FF6FF70D3
:1036600088800020C88048800D4800F049F8012279
:1036700011460B4800F038F80121094800F017F80E
:103680001C20084908700120487000208870012023
:10369000C8700846FFF78AFA10BD0000C400002079
:1036A0000004004004000020CA430282704721B198
:1036B000028842F00102028004E002884FF6FE73A5
:1036C0001A400280704730B50246002000230024D3
:1036D000158A05EA0103958905EA010413B10CB1C5
:1036E000012000E0002030BD1AB183890B438381A3
:1036F00002E083898B438381704781847047000097
:10370000002202881D4B98420ED01D4B98420BD0D0
:10371000B0F1804F08D01B4B984205D01A4B98420D
:1037200002D01A4B984204D14FF68F731A404B883F
:103730001A43174B984207D0164B984204D04FF6C5
:10374000FF431A40CB881A4302808B8883850B88FD
:1037500003850A4B98420BD0094B984208D00E4B78
:10376000984205D00D4B984202D00D4B984201D1A2
:103770000B7A03860123838270470000002C0140EE
:10378000003401400004004000080040000C0040EC
:10379000001000400014004000400140004401407F
:1037A0000048014070B506460D463046FFF77CFBE9
:1037B000682001F0E6FF072411E005FA04F000F0AC
:1037C0008000802803D13046FFF778FD02E03046C4
:1037D000FFF76AFB682001F0D4FF601E44B2002CA2
:1037E000EBDA3046FFF76AFD782001F0CAFF70BDC2
:1037F00010B501218803FFF74DFA01214804FFF7B6
:1038000039FA4FF4E1301549086000208880C880FB
:10381000088188810C204881114800F0EBF80121D3
:103820000F4800F0A8F820210D4800F09BF8252053
:103830000C4908700020487088700120C870084644
:10384000FFF7B4F940F22551054800F08BF801224A
:1038500040F22551024800F0A7F810BDB400002046
:10386000003801400400002010B500BF202111489D
:1038700000F08DF80028F9D00E4800F027F9C1B209
:103880000D4802880088401C0B4B1880D81C8154BE
:1038900000201946C866084600885F2801DD5F20C1
:1038A000088001218807FFF728FF01218807FFF71B
:1038B000FEFE10BD003801401001002010B500BF11
:1038C0002021114800F063F80028F9D00E4800F0DC
:1038D000FDF8C1B20D4802880088401C0B4B1880CF
:1038E000D81C815400201946C866084600885F2805
:1038F00001DD5F20088001218807FFF7FEFE01211E
:103900008807FFF7D4FE10BD00440040800100206E
:1039100010B500BF2021114800F039F80028F9D077
:103920000E4800F0D3F8C1B20D4802880088401C50
:103930000B4B1880D81C815400201946C8660846D5
:1039400000885F2801DD5F20088001218807FFF7DC
:10395000D4FE01218807FFF7AAFE10BD00480040F1
:10396000F001002001F40072B2F5007F00D100BF29
:10397000CA430280704721B1828942F40052828199
:1039800004E082894DF6FF731A4082817047024637
:103990000020B1F5007F00D100BF13880B400BB1B0
:1039A000012000E000207047F0B503460024002607
:1039B0000025002040F66A17B94200D100BF184622
:1039C000C1F3421401F01F06012707FA06F5012C86
:1039D00001D10C3004E0022C01D1103000E0143091
:1039E0001AB107682F43076002E00768AF4307601A
:1039F000F0BD00002DE9F04786B005460E460024D4
:103A0000A24600BFA1460027B08900B100BF2F46E3
:103A10002C8A4CF6FF700440F08804432C82AC8959
:103A20004EF6F3100440B088318908437189084389
:103A30000443AC81AC8A4FF6FF400440B089044394
:103A4000AC8201A8FFF736F91F48874202D1DDF8A2
:103A500010A001E0DDF80CA0A88900F4004040B1FE
:103A60000AEBCA0000EB0A1031684900B0FBF1F81C
:103A700007E00AEBCA0000EB0A1031688900B0FBCE
:103A8000F1F86420B8FBF0F004012009642101FB87
:103A90001089A88900F4004040B1322000EBC90031
:103AA000B0FBF1F000F00700044308E0322000EB27
:103AB00009106421B0FBF1F000F00F0004432C81E9
:103AC00006B0BDE8F0870000003801400146888854
:103AD000C0F308007047C1F3080282807047704746
:103AE00000BFFEE72DE9FE4F064600274FF00A080B
:103AF0007248002101604160807F01280ED10020C2
:103B00006E498877002407E06C481630015D304626
:103B1000FFF748FE601CC4B2082CF5DB00208DF8CE
:103B2000000003208DF8010000208DF802008DF8C0
:103B300003008DF8040001208DF8050085208DF824
:103B40000600DB208DF807003046FFF761FB0024FC
:103B500006E01DF804103046FFF724FE601CC4B2D6
:103B6000082CF6DB3046FFF749F9FFF7A9FC0546BC
:103B700006E03046FFF7F8FB10B901274FF00008C8
:103B8000FFF79EFC401B4045F3D3012F31D10024A9
:103B900008E04A48417D3046FFF7F9F847490855A3
:103BA000601CC4B2072CF4DB0521444800F030FB54
:103BB0004249088108464079897940EA01203F4915
:103BC0000989884277D13D48007D78BB3B4801791F
:103BD000C07801EB00203949888108468089098A2C
:103BE0000844364988813648408918B90020488100
:103BF000888160E031498889FCF7FFFC83463149C0
:103C0000FCF7A2FA82463049FCF728FB8146FCF714
:103C100017FD2A4948814889C11700EB1171091124
:103C2000A0EB0111491C254A518144E0FFE72348DC
:103C3000007D01283FD1214840792049897940EA17
:103C400001201E490989884226D11C480179C07883
:103C500001EB00201949888108468089098A0844B7
:103C6000164988818889FCF7C8FC83461549FCF70A
:103C70006BFA82461449FCF7F1FA8146FCF7E0FC46
:103C80000E4948814889C11700EB11710911A0EB59
:103C90000111491C094A51810848C08907494989CD
:103CA000401A0649096908440449086103F068FF9D
:103CB000002002490875BDE8FE8F00005800002072
:103CC00038000020000034410000B4412DE9FE43DB
:103CD000064600274FF00A0856480021016041605F
:103CE000807F01280ED1002052498877002407E008
:103CF00050481630015D3046FFF754FD601CC4B2D9
:103D0000082CF5DB00208DF8000003208DF8010061
:103D100000208DF802008DF803008DF804000120CA
:103D20008DF8050085208DF80600DB208DF8070052
:103D30003046FFF76DFA002406E01DF80410304607
:103D4000FFF730FD601CC4B2082CF6DB3046FFF7ED
:103D500055F8FFF7B5FB054606E03046FFF704FBD4
:103D600010B901274FF00008FFF7AAFB401B4045A0
:103D7000F3D3012F5CD1002408E02E48417D30466A
:103D8000FFF705F82B490855601CC4B2072CF4DB7B
:103D90000521284800F03CFA264908810846407968
:103DA000897940EA012023490989884240D1214884
:103DB000007D98B91F480179C07801EB00201D49AA
:103DC000488108464089098A08441A4948810846BA
:103DD000408903282CDA0020488129E01548007D1D
:103DE000012825D1134840791249897940EA0120F8
:103DF0001049098988420CD10E480179C07801EB3D
:103E000000200C49488108464089098A084409492C
:103E100048810848C08907494989401A0549096904
:103E200008440449086103F0ABFE0020014908750D
:103E3000BDE8FE833800002070472DE9FE430746A9
:103E40000C464FF00A084FF00009FF208DF80000E3
:103E500001208DF8010086208DF8020000208DF8E9
:103E600003008DF804008DF805008DF806008DF82C
:103E7000070079208DF80800002506E01DF80510E0
:103E80003846FFF78FFC681CC5B2092DF6DBFFF73B
:103E900017FB064607E03846FFF766FA18B94FF0F9
:103EA00001094FF00008FFF70BFB801B4045F2D3E0
:103EB000B9F1010F59D14FF00009002508E0617DEB
:103EC0003846FEF764FF04F116014855681CC5B278
:103ED000092DF4DB00202075012507E0217D04F188
:103EE0001600405D08442075681CC5B2082DF5DB3E
:103EF000207DC043401C2075217DA07F814234D1AC
:103F0000207920BB00250CE0A01D691C30F81110A1
:103F100020F8151030F81500216908442061681C4C
:103F2000C5B2022DF0DB617E207E01EB00206081B6
:103F3000608921690844206103212069B0FBF1F008
:103F40002061B4F902102069084420610DE0207955
:103F500001280AD1002020712088218A401A618816
:103F6000084400B2608003F00BFEBDE8FE83000051
:103F700070B586B006460C46FF208DF8040001207F
:103F80008DF8050086208DF8060000208DF80700CA
:103F90008DF808008DF809008DF80A008DF80B00E7
:103FA00079208DF80C00012E7ED1092101A803F0A3
:103FB0007DFD1E2001F0DAFB934890F86700012890
:103FC0004BD10020904981F8670081F868000125F5
:103FD0000AE08D4890F86810C01C405D08448A498A
:103FE00081F86800681CC5B2082DF2DB864890F89D
:103FF0006800C043401C844981F86800207968BB90
:10400000084690F86810C07A8142D9D1002020611A
:1040100000250CE0A01D691C30F8111020F81510C7
:1040200030F81500216908442061681CC5B2022DD2
:10403000F0DB75488179407901EB0020608160896F
:1040400021690844206103212069B0FBF1F020615F
:10405000B4F90210206908442061D3E020790128D6
:10406000FBD1694890F86810C07A814228D10020BD
:10407000206100250CE0A01D691C30F8111020F80B
:10408000151030F81500216908442061681CC5B27C
:10409000022DF0DB5C488179407901EB00206081E2
:1040A00060892169084400E016E02061032120694D
:1040B000B0FBF1F02061B4F90210206908442061DE
:1040C0002088218A401A6188084400B2608003F089
:1040D00057FD0020207195E0022EBED1092101A8D4
:1040E00003F002FD1E2001F041FB484890F86700F4
:1040F0000128B2D10020454981F8670081F86800A5
:1041000001250AE0414890F86810C01C405D084451
:104110003E4981F86800681CC5B2082DF2DB3B48B7
:1041200090F86800C043401C384981F86800084690
:1041300090F86810C07A814264D1207938BB0020A1
:10414000206100250CE0A01D691C30F8111020F83A
:10415000151030F81500216908442061681CC5B2AB
:10416000022DF0DB29488179407901EB0020608144
:10417000608921690844206103212069B0FBF1F0C6
:104180002061B4F902102069084420613AE02079E6
:10419000012837D11D4890F86810C07A814226D195
:1041A0000020206100250CE0A01D691C30F81110D2
:1041B00020F8151030F81500216908442061681CAA
:1041C000C5B2022DF0DB11488179407901EB002066
:1041D0006081608921690844206103212069B0FB66
:1041E000F1F02061B4F902102069084420612088B0
:1041F000218A401A6188084400B2608003F0C0FC44
:104200000020207106B070BD80010020F001002068
:104210002DE9F04306460F46FF21FF224FF001082B
:104220004FF0A00900251DE0705D41404FF0000CEB
:1042300013E013460C465210491003F0010008B178
:1042400041F0800104F0010018B182EA090281EA1C
:1042500008010CF1010000F0FF0CBCF1080FE8DBD5
:10426000681CC5B2BD42DFDB41EA022080B2BDE876
:10427000F08300000FB4054B10B503A9044A02985F
:1042800000F05CF910BC5DF814FB000099570008C1
:10429000AC000020490050EAC12018BF04204A0D9C
:1042A00018BF40F0010040F2FF72B2EB515F08BF4F
:1042B00040F00200012808BF052070472DE9F041B9
:1042C0004F1E00EBC7010446D1E9000115461E460A
:1042D00037F006020DD02A463346FCF7A4F87F1EBD
:1042E00004EBC703D3E90023FBF7F6FF37F0060220
:1042F000F1D1022F25D0042F13D0062F18BFBDE80F
:10430000F0812A463346FCF78EF8D4E90A23FBF7FE
:10431000E3FF2A463346FCF786F8D4E90823FBF787
:10432000DBFF2A463346FCF77EF8D4E90623FBF789
:10433000D3FF2A463346FCF776F8D4E90423FBF78B
:10434000CBFF2A463346FCF76EF8D4E90223FBF78D
:10435000C3FF2A463346FCF766F8D4E90023BDE8DC
:10436000F041FBF7B9BF0000002213461046014997
:10437000FCF7CBB80000F03F0122FCF7DDBAFBF7F9
:10438000ABBF0022134610461146FCF7BEB840F200
:10439000013200204FF0E041FCF7CEBA024A002083
:1043A0001107FCF7C9BA000001FDFFFF02E008C8D1
:1043B000121F08C1002AFAD170477047002001E09F
:1043C00001C1121F002AFBD170470000014908609B
:1043D00070470000B00000202DE9FF5FDDE90220FA
:1043E000010DDDF838B0024318D044F61050A1F2A8
:1043F000FF3141430D140F98012820D0A5EB0B008D
:10440000401C5FEA000A4FF00004474EDFF81C91A1
:10441000A046504616D5CAF1000728E00F9801249F
:1044200043A2012808D0002100980F9BC0E9002179
:10443000C0E90243BDE8FF9F6FEA0B01F4E7CBF14F
:104440000000DEE7074612E0F80707D022463346B1
:1044500040464946FBF7E7FF8046894622463346F9
:1044600010461946FBF7DFFF04460E467F10002F6B
:10447000EAD1DDE90201BAF1000F42464B4602DA09
:10448000FBF7D1FF01E0FCF740F804460E4600229E
:10449000284BFCF72DF903D84FF0FF30014607E019
:1044A0000022254B20463146FBF716FFFCF75BFA4E
:1044B000102409E0002C0ADB0A220023FCF746F94D
:1044C000019B30321A55641E50EA0102F2D1641C7D
:1044D000019AC4F1110314440F9A012A03D0012256
:1044E00008430DD10AE0084304D000204FF0110B1F
:1044F0000F9080E7A3EB0B056D1E0DE05B4504DD1F
:104500004FF0000205F1010504E003DA4FF000026C
:10451000A5F10105002AECD000980F99C0E90231FD
:10452000C0E9004586E70000000024400000F03F9D
:10453000300000000000F0430000E03F2DE9FF4F95
:1045400095B09B468946064600250FE2252877D17F
:1045500000242746F84A0121059400E0044316F898
:10456000013F203B01FA03F01042F7D130782A28AE
:1045700011D06FF02F033078A0F13002092A16D83D
:10458000059A44F0020402EB820203EB420210445B
:10459000761C0590EFE759F8042B0592002A03DA00
:1045A000504244F40054059044F00204761C3078E4
:1045B0002E2816D116F8010F44F004042A280DD035
:1045C0006FF02F023078A0F13003092B09D807EBE8
:1045D000870302EB4303C718761CF3E759F8047B03
:1045E000761C30786C280FD006DC4C2817D0682851
:1045F0000DD06A2814D104E0742810D07A280FD185
:104600000DE044F400140AE044F4801401E044F4A2
:1046100040147278824202D104F58014761C761C14
:10462000307866280BD013DC582877D009DC0028B6
:1046300075D04528F6D04628F4D047281AD19DE1F8
:1046400018E0632835D0642879D0652812D195E127
:10465000702873D008DC6728F1D069286FD06E28E5
:104660000DD06F2806D1B5E073282CD0752875D0F1
:10467000782874D05A46179990476D1C75E1C4F399
:104680000250022809D003280DD0D9F800100428C0
:104690000DD00D6009F1040967E1D9F80010EA179F
:1046A000C1E90052F6E7D9F800100D80F2E70D706D
:1046B000F0E719F8041B8DF8001000208DF80100B8
:1046C000EA46012003E059F804AB4FF0FF306107E0
:1046D0004FF0000102D40DE008F101018846B94213
:1046E0000FDA8045F8DB1AF808100029F4D108E049
:1046F00008F1010188468142FADB1AF80810002906
:10470000F6D105985B46A0EB080721463846179A74
:1047100000F094FA284400EB080507E04DE029E199
:104720000DE01AF8010B5A4617999047B8F10108A5
:10473000F7D25B4621463846179A13E142E00A2237
:104740000092C4F302524FF0000A022A08D059F82E
:1047500004CB032A4FEAEC710AD00DE029E02AE0ED
:1047600009F1070121F00702F2E802C1914609E0D0
:104770000FFA8CFC4FEAEC71042A03D14FFA8CFC3F
:104780004FEAEC71002907DA0A460021DCF1000C3F
:1047900061EB02012D2202E0220504D52B228DF8C7
:1047A0000420012203E0E20701D02022F7E790462F
:1047B00059E00A2102E010220DE010214FF0000A1A
:1047C00000910BE010224FF0000A44F00404082787
:1047D000009203E008224FF0000A0092C4F3025254
:1047E000022A05D059F804CB0021032A08D009E099
:1047F00009F1070121F00702F2E802C1914605E044
:104800001FFA8CFC042A01D10CF0FF0C4FF00008B9
:10481000220728D5702806D0009B83F0100353EAA6
:104820000A0305D00EE040228DF80420012208E0A2
:104830005CEA010206D030228DF804208DF80500D4
:1048400002229046009B83F0080353EA0A030AD130
:104850005CEA010201D1620705D530228DF80420FF
:104860004FF001087F1E582804D034A003900EA8F2
:1048700002900DE036A0F9E753466046009AFBF738
:1048800065FF84460398825C0298401E0290027085
:104890005CEA0100F0D1029806A9081A00F1200A8A
:1048A000600702D524F4803400E00127574502DD7B
:1048B000A7EB0A0000E0002000EB0A010090059839
:1048C0004144401A0590E00306D45B462146179AFE
:1048D000059800F0B3F90544002706E001A85A4600
:1048E000C05D179990476D1C7F1C4745F6DBE003C0
:1048F0000CD55B462146179A059800F09FF90544B0
:1049000004E030205A46179990476D1C0099481EC4
:1049100000900029F5DC08E0029802995A460078D8
:10492000491C0291179990476D1CBAF10001AAF138
:10493000010AF1DC65E10000092801003031323361
:1049400034353637383961626364656600000000CB
:1049500030313233343536373839414243444546B5
:104960000000000000F058F90544761C307800285B
:104970007FF4ECAD19B02846BDE8F08F620700D493
:10498000062709F1070222F0070CFCE80223E146A2
:1049900003F000485FEA080C02D00FF2702C0DE023
:1049A0005FEA045C02D50FF2682C07E05FEAC47C82
:1049B00002D00FF2602C01E0AFF2700C4FF0FF3824
:1049C00023F00043CDF850C065280CD006DC452804
:1049D00009D046281DD047283DD13DE0662818D093
:1049E00067287ED138E00021112F01DB112000E083
:1049F000781CCDE9000106A90EA8FFF7EDFCDDE962
:104A00000F010E9A03910021009207F1010A04910F
:104A10004DE04FF000400097CDE9011006A90EA827
:104A2000FFF7DAFCDDE90F0203920E9B11990022D9
:104A3000DDF80CA00093049211B9791C00EB010A77
:104A4000B7EB0A0004D4C0F1FF3007F1010A04906B
:104A5000AAEB0700019044E0012F00DA01270021B2
:104A6000112F01DD112000E03846CDE9000106A933
:104A70000EA8FFF7B1FCDDE90F010E9A03910021AA
:104A800004910092BA4621070CD40399514500DAEB
:104A90008A46BAF1010F05DD009AAAF10101515CC5
:104AA000302908D0B84202DA10F1040F06DA0121E9
:104AB000CDE9011015E0AAF10101E9E7002805DCC4
:104AC000049901440491AAEB000102E0411C514504
:104AD00000DD8A460499401A401C01904FF00040C6
:104AE0000290200704D40198504501DBCDF80480E2
:104AF00000208DF84F0002980DF14F07B0F1004FE4
:104B000025D02B200E9002984FF0020800280CDAD6
:104B1000404202902D200E9007E00A210298FBF7F8
:104B2000FFFD3031029007F8011DB8F10001A8F136
:104B30000108F2DC02980028EFD1791E0E98087067
:104B4000307800F0200040F0450007F8020D12A870
:104B5000C01B00F107081498007800B1012000EB99
:104B60000A01019801EBE07105984144401A401E8A
:104B70000590E00306D45B462146179A059800F09D
:104B80005DF805441498007818B15A461799904773
:104B90006D1CE00324D55B462146179A059800F06A
:104BA0004DF805441CE00498002807DBDDE903010B
:104BB000884203DD0098405C179901E01799302086
:104BC0005A469047049805F10105401C049001984D
:104BD000401E019004D12E205A46179990476D1C13
:104BE000BAF10001AAF1010ADDDC05E017F8010BBA
:104BF0005A46179990476D1CB8F10001A8F10108B9
:104C0000F4DC5B462146179A0598ABE62D000000C0
:104C10002B000000200000002DE9F0410446002593
:104C20001E461746880404D405E039462020B047C4
:104C30006D1C641EF9D52846BDE8F0812DE9F041D0
:104C4000044600251E469046C80301D5302700E0E3
:104C50002027880404D505E041463846B0476D1C3E
:104C6000641EF9D52846BDE8F081000070B5044601
:104C70000D46A81EC1B2601C00F0DAFDE178491EA5
:104C8000615C884203D0FF201549487070BD2078D0
:104C90001349087060784870E078A17840EA0120F4
:104CA0000F4948802079087160794871A07988712E
:104CB000207AE17940EA012009490881607A887206
:104CC000084680780E3881F83D00084690F83D206F
:104CD00004F10D010B30FBF725FA00BFD6E7000009
:104CE0006002002010B50446072C04D0082C72D0B6
:104CF000092C6FD1ECE001214802FDF7CBFF012127
:104D00000846FDF7A7FF1020B94908800020C870A9
:104D100003208870B748FCF73BFFB748B7490860E5
:104D2000B7484860002088600120C8600020086102
:104D300080204861400088618000C86120200862AE
:104D40000002486200208862AE48FCF7EFF90121BA
:104D5000AC48FCF7E0F90020AB490860012008717D
:104D600048714FF4602088600020C86001200874FA
:104D7000A1484C38FBF79EFE0523012204219E48E2
:104D80004C38FBF7BFFE01219B484C38FBF773FE04
:104D9000012199484C38FBF763FE97484C38FBF7E4
:104DA0000DFF00BF94484C38FBF77AFE0028F9D17C
:104DB00091484C38FBF712FF00BF8F484C38FBF787
:104DC00065FE0028F9D101218B484C38FBF7FBFE2A
:104DD0000BE100E008E101214802FDF75BFF012142
:104DE0000846FDF737FF1020814908800020C87071
:104DF000032088707F48FCF7CBFE01207C490880A7
:104E00000020C8708148FCF7C3FE7B487B490860DE
:104E10007B484860002088600220C860002008614C
:104E200080204861400088618000C86120200862BD
:104E300000024862002088627248FCF777F901217D
:104E40007048FCF768F900206F490860012008717C
:104E500048714FF4602088600020C8600220087408
:104E600065484C38FBF726FE0523012204216248E1
:104E70004C38FBF747FE0523022208215E484C38D8
:104E8000FBF740FE01215C484C38FBF7F4FD0121A3
:104E900059484C38FBF7E4FD57484C38FBF78EFE79
:104EA00000BF55484C38FBF7FBFD0028F9D15248AC
:104EB0004C38FBF793FE00BF4F484C38FBF7E6FD3C
:104EC0000028F9D101214C484C38FBF77CFE8CE0DE
:104ED00001214802FDF7DEFE01210846FDF7BAFE7A
:104EE0001020434908800020C87003208870414882
:104EF000FCF74EFE01203E4908800020C870434860
:104F0000FCF746FE02203A4908800020C8703F485E
:104F1000FCF73EFE384839490860394848600020AF
:104F200088600320C860002008618020486140003C
:104F300088618000C8612020086200024862002069
:104F400088623048FCF7F2F801212E48FCF7E3F8BC
:104F500000202D4908600120087148714FF460203D
:104F600088600020C8600320087423484C38FBF791
:104F7000A1FD0523012204211F484C38FBF7C2FD87
:104F80000523022208211C484C38FBF7BBFD0523F2
:104F90000322092118484C38FBF7B4FD01211648BB
:104FA0004C38FBF768FD012113484C38FBF758FDDE
:104FB00011484C38FBF702FE00BF0F484C38FBF796
:104FC0006FFD0028F9D10C484C38FBF707FE00BFF5
:104FD00009484C38FBF75AFD0028F9D10121064851
:104FE0004C38FBF7F0FD00E000BF00BF10BD000033
:104FF00000000020000801404C240140D0000020A7
:105000001000002008000240FC000020000C0140BD
:1050100010B504460A2C75D2DFE804F0053352754A
:10502000A6C7E8FEFDFC8020BC49088003208870EC
:105030001020C870BA48FCF7ABFD01228021B848A7
:10504000FCF73AFE4020B549088003208870102004
:10505000C870B348FCF79CFD01224021B048FCF722
:105060002BFE2020AD490880032088700420C870E2
:10507000AB48FCF78DFD01222021A948FCF71CFE5E
:1050800049E10420A5490880032088701020C870D9
:10509000A448FCF77DFD00220421A248FCF70CFE89
:1050A00008209E490880032088701020C8709D4801
:1050B000FCF76EFD002208219A48FCF7FDFD2AE16D
:1050C0004FF4806095490880032088701020C870D4
:1050D0009348FCF75DFD00224FF480619048FCF797
:1050E000EBFD08208D490880032088701020C870CF
:1050F0008B48FCF74DFD00224FF400618848FCF717
:10510000DBFD08E106E14FF40040844908800320FC
:1051100088701020C8708248FCF73AFD0122D10344
:105120007F48FCF7C9FD4FF480407C49088003208C
:1051300088701020C8707A48FCF72AFD012291037C
:105140007748FCF7B9FD4FF40050744908800320FC
:1051500088700420C8707248FCF71AFD01225103C0
:105160006F48FCF7A9FDD6E001206C4908800320B8
:1051700088701020C8706B48FCF70AFD00220121DE
:105180006848FCF799FD4FF480706449088003205B
:1051900088701020C8706248FCF7FAFC00224FF4B7
:1051A00080715F48FCF788FDB5E002205B4908800C
:1051B000032088701020C8705A48FCF7E9FC0022D0
:1051C00002215848FCF778FD4FF48050534908807D
:1051D000032088701020C8705248FCF7D9FC0022C8
:1051E0004FF480514F48FCF767FD94E020204B4975
:1051F0000880032088701020C8704A48FCF7C8FC5B
:10520000012220214748FCF757FD402043490880F0
:10521000032002E05DE03CE01AE088701020C870D6
:105220004048FCF7B5FC012240213E48FCF744FD14
:1052300080203A490880032088700420C8703948CB
:10524000FCF7A6FC012280213648FCF735FD62E020
:10525000102032490880032088701020C87031481F
:10526000FCF796FC002210212E48FCF725FD4FF498
:1052700000602A490880032088701020C8702948DF
:10528000FCF786FC00224FF400612648FCF714FD71
:1052900041E0012021490880032088701020C87057
:1052A0001F48FCF775FC012211461D48FCF704FD60
:1052B0004FF4807019490880032088701020C8704E
:1052C0001848FCF765FC012211021648FCF7F4FCB3
:1052D00021E0022011490880032088701020C87046
:1052E0000F48FCF755FC002202210D48FCF7E4FCB6
:1052F0004FF4805009490880032088701020C8703E
:105300000748FCF745FC00224FF480510448FCF7A5
:10531000D3FC00E000BF00BF10BD00000000002073
:10532000000C01400008014010B504460A2C7BD255
:10533000DFE804F005101B27333F4B56626E402018
:105340003A490880032088700420C8703848FCF768
:105350001FFC69E00820354908800320887004207C
:10536000C8703448FCF714FC5EE04FF400602F492D
:105370000880032088700420C8702D48FCF708FCC2
:1053800052E04FF4804029490880032088700420AF
:10539000C8702748FCF7FCFB46E04FF480702349B7
:1053A0000880032088700420C8702148FCF7F0FBB7
:1053B0003AE04FF480501D49088003208870042093
:1053C000C8701C48FCF7E4FB2EE040201749088019
:1053D000032088700420C8701648FCF7D9FB23E02E
:1053E0004FF4006011490880032088700420C870C1
:1053F0001048FCF7CDFB17E04FF480700B49088094
:10540000032088700420C8700948FCF7C1FB0BE03A
:105410004FF4805005490880032088700420C8702C
:105420000348FCF7B5FB00BF00BF10BD0000002023
:10543000000C01400008014010B504460A2C7BD244
:10544000DFE804F005101B27333F4B56626E402007
:105450003A490880032088701020C8703848FCF74B
:1054600097FB69E0082035490880032088701020E8
:10547000C8703448FCF78CFB5EE04FF400602F49A5
:105480000880032088701020C8702D48FCF780FB2E
:1054900052E04FF480402949088003208870102092
:1054A000C8702748FCF774FB46E04FF4807023492E
:1054B0000880032088701020C8702148FCF768FB22
:1054C0003AE04FF480501D49088003208870102076
:1054D000C8701C48FCF75CFB2EE040201749088090
:1054E000032088701020C8701648FCF751FB23E099
:1054F0004FF4006011490880032088701020C870A4
:105500001048FCF745FB17E04FF480700B4908800A
:10551000032088701020C8700948FCF739FB0BE0A5
:105520004FF4805005490880032088701020C8700F
:105530000348FCF72DFB00BF00BF10BD000000209A
:10554000000C01400008014070B505460C46012DD5
:1055500002D0022D7ED141E001214804FDF78AFBF3
:105560000420434908801820C870032088704148EF
:10557000FCF70EFB08203E4908800420C8703D4817
:10558000FCF706FB3C48046000203B498880C8804B
:10559000088188810C2048813848FEF72BFA0121C8
:1055A0003648FEF7E8F920213448FEF7DBF92620DB
:1055B000334908700020487088700120C870084680
:1055C000FDF7F4FA40F225512C48FEF7CBF9012201
:1055D00040F225512948FEF7E7F946E00121880409
:1055E000FDF748FB4FF48060214908801820C870FF
:1055F000032088702348FCF7CBFA4FF400601C4965
:1056000008800420C8701F48FCF7C2FA1A480460DA
:10561000002019498880C880088188810C20488131
:105620001948FEF7E7F901211748FEF7A4F92021F0
:105630001548FEF797F92720114908700020487097
:1056400088700120C8700846FDF7B0FA40F2255175
:105650000D4800E008E0FEF785F9012240F22551EF
:105660000948FEF7A1F900E000BF00BF70BD0000CF
:105670000000002000080140B40000200044004069
:1056800004000020000C01400048004010B5044612
:10569000114850F82400012803D12046FFF7B8FC38
:1056A00019E00D4850F8240003280AD10B4800786F
:1056B000012810D10020094908702046FFF712FB8D
:1056C00009E0054850F82400022804D14FF416518F
:1056D0002046FFF739FF10BDF4030020080000202A
:1056E00010B500201549C8841549888240F6B830A5
:1056F0001449486400201449488040F6B8301349E2
:105700004864134813494864002013490861134949
:1057100008611349486113494880002408E00021CA
:10572000114840F82410283040F82410601CC4B2FE
:105730000A2CF4DB02F024FA10BD00002004002043
:105740005004002068040020780000200805002094
:10575000E0930400B8040020380000205800002026
:105760005805002018000020CC03002001B50020BF
:1057700000E0401C41F27072009951438142F8D818
:1057800008BD01B5002000E0401C0099C1EBC1013B
:105790008142F9D808BD000070B504460D46E1B25B
:1057A0000548FEF798F900BF40210348FEF7EFF8DF
:1057B0000028F9D0204670BD0038014010B50446DD
:1057C000F02002F0CDF9112002F0CAF9002002F019
:1057D000C7F9112002F0C4F9FE2002F0C1F9FF2040
:1057E00002F0BEF9FF2002F0BBF90221204602F0D0
:1057F00099F90221002002F095F90221002002F01F
:1058000091F9122002F0ACF904F13000064981F858
:1058100068000649C869022102F084F9024991F83A
:10582000680002F09DF910BD1001002068040020FE
:1058300010B502460B460020002104E0545C0444ED
:10584000E0B24C1CE1B29942F8DB10BD10B5044641
:10585000F02002F085F9112002F082F9002002F018
:105860007FF9112002F07CF9FE2002F079F9FF2087
:1058700002F076F9FF2002F073F90221204602F0CF
:1058800051F90221002002F04DF90221002002F01E
:1058900049F90D2002F064F904F12B00064981F862
:1058A000680006490869022102F03CF9024991F8B2
:1058B000680002F055F910BD10010020180000200A
:1058C00010B50446F02002F04BF9112002F048F91F
:1058D000002002F045F9112002F042F9FE2002F00A
:1058E0003FF9FF2002F03CF9FF2002F039F90221D4
:1058F000204602F017F90221002002F013F90221DC
:10590000002002F00FF9132002F02AF904F131000F
:10591000064981F868000649C869022102F002F9C7
:10592000024991F8680002F01BF910BD1001002037
:105930000805002010B50446F02002F011F91120EE
:1059400002F00EF9002002F00BF9112002F008F924
:10595000FE2002F005F9FF2002F002F9FF2002F01C
:10596000FFF80221204602F0DDF80221002002F0BB
:10597000D9F80221002002F0D5F8112002F0F0F849
:1059800004F12F00064981F868000649C869022120
:1059900002F0C8F8024991F8680002F0E1F810BD81
:1059A00010010020B804002070B50446F02002F079
:1059B000D7F8112002F0D4F8002002F0D1F811201D
:1059C00002F0CEF8FE2002F0CBF8FF2002F0C8F87B
:1059D000FF2002F0C5F80221204602F0A3F80221C0
:1059E000002002F09FF80221002002F09BF8142012
:1059F00002F0B6F804F13200084981F8680008485E
:105A0000C0680A2190FBF1F50221284602F08AF8CD
:105A1000024991F8680002F0A3F870BD100100205F
:105A20005805002010B50446F02002F099F8112026
:105A300002F096F8002002F093F8112002F090F89E
:105A4000FE2002F08DF8FF2002F08AF8FF2002F01D
:105A500087F80221204602F065F80221002002F0BA
:105A600061F80221002002F05DF8072002F078F8CA
:105A700004F12500064981F868000649C88A022118
:105A800002F050F8024991F8680002F069F810BD80
:105A9000100100202004002010B50446F02002F080
:105AA0005FF8112002F05CF8002002F059F8112094
:105AB00002F056F8FE2002F053F8FF2002F050F8F2
:105AC000FF2002F04DF80221204602F02BF80221BF
:105AD000002002F027F80221002002F023F8042021
